S00A000068742E737265633E
S11300000C9434000C9451000C9451000C94510045
S11300100C9451000C9451000C9451000C94510018
S11300200C9451000C9451000C94F3010C94AB010A
S11300300C9451000C9451000C94C5010C94510083
S11300400C9451000C9451000C9451000C945100E8
S11300500C9451000C9451000C9451000C945100D8
S11300600C9451000C94510011241FBECFEFD8E022
S1130070DEBFCDBF11E0A0E0B1E0E2E8F4E002C0F1
S113008005900D92A435B107D9F721E0A4E5B1E0BC
S113009001C01D92A136B207E1F70E94DD000C9465
S11300A03F020C940000EAE7F0E0808180688083DE
S11300B0808180648083808186FDFDCF20917800DB
S11300C030917900EAE7F0E090819F779083C9014D
S11300D00895882319F0813029F011C084B5826015
S11300E084BD089588E187BD16BCA99AEEE6F0E0C8
S11300F080818260808385B5856085BD089585B5DE
S11301008A7F85BDEEE6F0E080818D7F808308954F
S1130110CF93DF93EC011816190624F481E0809341
S1130120020106C08FEF80930201D195C195D109D8
S113013010925B0110925A0181E00E946900809143
S11301405A0190915B018C179D07C9F782E00E94C8
S11301506900DF91CF910895882319F0813051F01F
S113016021C0E1E8F0E080818860808380818F7B1A
S11301708083089589E698E19093890080938800AC
S1130180109285001092840086B3826286BBEFE6EB
S1130190F0E0808182628083E1E8F0E08081846025
S11301A080830895E1E8F0E080818B7F8083EFE62F
S11301B0F0E080818D7D80830895CF93DF93CDB768
S11301C0DEB7CC54D1090FB6F894DEBF0FBECDBF55
S11301D08CE4E3E0F1E0DE01119601900D928A9542
S11301E0E1F780EF8AB92098789480E00E94690052
S11301F080E00E94AC0081E00E94AC0087EA9DEFA1
S11302000E948800ECE7F0E0808183608083808135
S113021080648083EAE7F0E0808187608083808166
S11302208F7D8083EBE7F0E08081887F80830F2ED1
S1130230F8EECF2EF3E0DF2EE12CF12CF02D08E5C3
S113024012E00E945300AC0189819A814817590732
S113025088F0FE01339691E02191319142175307C2
S113026020F09F5F9632C1F706C08EEE890F823070
S113027010F407C090E0892F90E0909301018093DF
S1130280000180915C0190915D014E9728F41092D9
S11302905901109258011AC020915C0130915D01FE
S11302A0A0900001B0900101AAEEBCE00E943002CF
S11302B06C56734881409109A70196010E940E0271
S11302C02A0D3B1D30935901209358018091580108
S11302D090915901893592402CF010935901009363
S11302E058010AC08091580190915901992324F42E
S11302F0109259011092580180915801909159011E
S11303002091540130915501821B930B9093570116
S113031080935601809156019091570199231CF4C2
S113032091958195910906970CF48BCF8091560194
S1130330909157010E948800809154019091550139
S11303402091560130915701820F931F90935501CC
S11303508093540176CF1F920F920FB60F921124FF
S11303608F939F9380915E0190915F0190935D01C3
S113037080935C0110925F0110925E019F918F91B6
S11303800F900FBE0F901F9018951F920F920FB6EB
S11303900F9211248F939F93EF93FF93E091600149
S11303A0F0E0E15BFE4F80818BB990910201809176
S11303B06001890F80936001809160018370809354
S11303C0600180915A0190915B01019690935B01C9
S11303D080935A01FF91EF919F918F910F900FBEDF
S11303E00F901F9018951F920F920FB60F92112421
S11303F08F939F93109287001092860080915E01E4
S113040090915F01019690935F0180935E019F91AB
S11304108F910F900FBE0F901F901895A1E21A2E86
S1130420AA1BBB1BFD010DC0AA1FBB1FEE1FFF1F94
S1130430A217B307E407F50720F0A21BB30BE40BE4
S1130440F50B661F771F881F991F1A9469F760952B
S11304507095809590959B01AC01BD01CF010895E5
S1130460A29FB001B39FC001A39F700D811D1124F1
S1130470911DB29F700D811D1124911D0895F89452
S1050480FFCFA8
S113048213000116002C00420058006E0084009AEA
S113049200B000C600DC00F20008011E0134014A6B
S11304A201600176018C01A20183029702AB02BFB3
S11304B202D302E702FB020F03230337034B035F5A
S11304C203730387039B03AF03C303D703EB0350F5
S10704D290A0600092
S9030000FC
